{
  "contractName": "Bet",
  "abi": [
    {
      "constant": true,
      "inputs": [],
      "name": "confirmation_deadline",
      "outputs": [
        {
          "name": "",
          "type": "uint256"
        }
      ],
      "payable": false,
      "stateMutability": "view",
      "type": "function"
    },
    {
      "constant": true,
      "inputs": [],
      "name": "bet",
      "outputs": [
        {
          "name": "",
          "type": "uint256"
        }
      ],
      "payable": false,
      "stateMutability": "view",
      "type": "function"
    },
    {
      "constant": true,
      "inputs": [],
      "name": "winstate",
      "outputs": [
        {
          "name": "",
          "type": "uint8"
        }
      ],
      "payable": false,
      "stateMutability": "view",
      "type": "function"
    },
    {
      "constant": true,
      "inputs": [],
      "name": "bet_name",
      "outputs": [
        {
          "name": "",
          "type": "string"
        }
      ],
      "payable": false,
      "stateMutability": "view",
      "type": "function"
    },
    {
      "constant": true,
      "inputs": [],
      "name": "owed_challenged",
      "outputs": [
        {
          "name": "",
          "type": "uint256"
        }
      ],
      "payable": false,
      "stateMutability": "view",
      "type": "function"
    },
    {
      "constant": true,
      "inputs": [],
      "name": "threshold",
      "outputs": [
        {
          "name": "",
          "type": "uint256"
        }
      ],
      "payable": false,
      "stateMutability": "view",
      "type": "function"
    },
    {
      "constant": true,
      "inputs": [],
      "name": "initiator",
      "outputs": [
        {
          "name": "",
          "type": "address"
        }
      ],
      "payable": false,
      "stateMutability": "view",
      "type": "function"
    },
    {
      "constant": true,
      "inputs": [],
      "name": "creation_time",
      "outputs": [
        {
          "name": "",
          "type": "uint256"
        }
      ],
      "payable": false,
      "stateMutability": "view",
      "type": "function"
    },
    {
      "constant": true,
      "inputs": [],
      "name": "challenged",
      "outputs": [
        {
          "name": "",
          "type": "address"
        }
      ],
      "payable": false,
      "stateMutability": "view",
      "type": "function"
    },
    {
      "constant": true,
      "inputs": [],
      "name": "matched",
      "outputs": [
        {
          "name": "",
          "type": "uint256"
        }
      ],
      "payable": false,
      "stateMutability": "view",
      "type": "function"
    },
    {
      "constant": true,
      "inputs": [
        {
          "name": "",
          "type": "uint256"
        }
      ],
      "name": "judges",
      "outputs": [
        {
          "name": "",
          "type": "address"
        }
      ],
      "payable": false,
      "stateMutability": "view",
      "type": "function"
    },
    {
      "constant": true,
      "inputs": [],
      "name": "state",
      "outputs": [
        {
          "name": "",
          "type": "uint8"
        }
      ],
      "payable": false,
      "stateMutability": "view",
      "type": "function"
    },
    {
      "constant": true,
      "inputs": [],
      "name": "judgement_deadline",
      "outputs": [
        {
          "name": "",
          "type": "uint256"
        }
      ],
      "payable": false,
      "stateMutability": "view",
      "type": "function"
    },
    {
      "constant": true,
      "inputs": [
        {
          "name": "",
          "type": "address"
        }
      ],
      "name": "votes",
      "outputs": [
        {
          "name": "",
          "type": "uint8"
        }
      ],
      "payable": false,
      "stateMutability": "view",
      "type": "function"
    },
    {
      "constant": true,
      "inputs": [],
      "name": "owed_initiator",
      "outputs": [
        {
          "name": "",
          "type": "uint256"
        }
      ],
      "payable": false,
      "stateMutability": "view",
      "type": "function"
    },
    {
      "inputs": [
        {
          "name": "_bet_name",
          "type": "string"
        },
        {
          "name": "_challenged",
          "type": "address"
        },
        {
          "name": "_judges",
          "type": "address[]"
        },
        {
          "name": "_threshold",
          "type": "uint256"
        },
        {
          "name": "_deadline",
          "type": "uint256"
        }
      ],
      "payable": true,
      "stateMutability": "payable",
      "type": "constructor"
    },
    {
      "anonymous": false,
      "inputs": [
        {
          "indexed": false,
          "name": "judge",
          "type": "address"
        },
        {
          "indexed": false,
          "name": "vote",
          "type": "uint8"
        }
      ],
      "name": "Voted",
      "type": "event"
    },
    {
      "anonymous": false,
      "inputs": [
        {
          "indexed": false,
          "name": "state",
          "type": "uint8"
        }
      ],
      "name": "stateChange",
      "type": "event"
    },
    {
      "anonymous": false,
      "inputs": [
        {
          "indexed": false,
          "name": "owed",
          "type": "address"
        },
        {
          "indexed": false,
          "name": "amount",
          "type": "uint256"
        }
      ],
      "name": "Owed",
      "type": "event"
    },
    {
      "anonymous": false,
      "inputs": [
        {
          "indexed": false,
          "name": "t",
          "type": "uint256"
        }
      ],
      "name": "Test",
      "type": "event"
    },
    {
      "constant": false,
      "inputs": [],
      "name": "matchBet",
      "outputs": [],
      "payable": true,
      "stateMutability": "payable",
      "type": "function"
    },
    {
      "constant": false,
      "inputs": [],
      "name": "collect",
      "outputs": [],
      "payable": false,
      "stateMutability": "nonpayable",
      "type": "function"
    },
    {
      "constant": false,
      "inputs": [],
      "name": "retract",
      "outputs": [],
      "payable": false,
      "stateMutability": "nonpayable",
      "type": "function"
    },
    {
      "constant": false,
      "inputs": [
        {
          "name": "int_vote",
          "type": "uint256"
        }
      ],
      "name": "castVote",
      "outputs": [],
      "payable": false,
      "stateMutability": "nonpayable",
      "type": "function"
    },
    {
      "constant": false,
      "inputs": [],
      "name": "conclude",
      "outputs": [],
      "payable": false,
      "stateMutability": "nonpayable",
      "type": "function"
    },
    {
      "constant": false,
      "inputs": [
        {
          "name": "_state",
          "type": "uint8"
        }
      ],
      "name": "changeState",
      "outputs": [],
      "payable": false,
      "stateMutability": "nonpayable",
      "type": "function"
    }
  ],
  "bytecode": "0x608060405260006006556000600855600060095542600a5562015180600a5401600c556000600d60016101000a81548160ff021916908360038111156200004257fe5b02179055506040516200260d3803806200260d833981018060405260a08110156200006c57600080fd5b8101908080516401000000008111156200008557600080fd5b828101905060208101848111156200009c57600080fd5b8151856001820283011164010000000082111715620000ba57600080fd5b5050929190602001805190602001909291908051640100000000811115620000e157600080fd5b82810190506020810184811115620000f857600080fd5b81518560208202830111640100000000821117156200011657600080fd5b50509291906020018051906020019092919080519060200190929190505050600c5481111515620001d5576040517f08c379a00000000000000000000000000000000000000000000000000000000081526004018080602001828103825260338152602001807f646561646c696e65206d757374206265206d6f7265207468616e20323420686f81526020017f75727320696e746f20746865206675747572650000000000000000000000000081525060400191505060405180910390fd5b6064821115151562000275576040517f08c379a00000000000000000000000000000000000000000000000000000000081526004018080602001828103825260228152602001807f7468726573686f6c642063616e742062652067726561746572207468616e203181526020017f303000000000000000000000000000000000000000000000000000000000000081525060400191505060405180910390fd5b6001835110151515620002f0576040517f08c379a000000000000000000000000000000000000000000000000000000000815260040180806020018281038252601d8152602001807f5468657265206d7573742062652061746c656173742031206a7564676500000081525060200191505060405180910390fd5b846004908051906020019062000308929190620004d5565b503460058190555083600160006101000a81548173ffffffffffffffffffffffffffffffffffffffff021916908373ffffffffffffffffffffffffffffffffffffffff160217905550336000806101000a81548173ffffffffffffffffffffffffffffffffffffffff021916908373ffffffffffffffffffffffffffffffffffffffff1602179055508160078190555080600b819055508260029080519060200190620003b79291906200055c565b5060008090505b83518110156200044f5760038060008684815181101515620003dc57fe5b9060200190602002015173ffffffffffffffffffffffffffffffffffffffff1673ffffffffffffffffffffffffffffffffffffffff16815260200190815260200160002060006101000a81548160ff021916908360038111156200043c57fe5b02179055508080600101915050620003be565b506000600d60006101000a81548160ff021916908360028111156200047057fe5b02179055507f45f2fef6c61e25b553da580bc9f711ea1c431c244c2679f0abefbd95446b0dfb600d60009054906101000a900460ff1660405180826002811115620004b757fe5b60ff16815260200191505060405180910390a1505050505062000659565b828054600181600116156101000203166002900490600052602060002090601f016020900481019282601f106200051857805160ff191683800117855562000549565b8280016001018555821562000549579182015b82811115620005485782518255916020019190600101906200052b565b5b509050620005589190620005eb565b5090565b828054828255906000526020600020908101928215620005d8579160200282015b82811115620005d75782518260006101000a81548173ffffffffffffffffffffffffffffffffffffffff021916908373ffffffffffffffffffffffffffffffffffffffff160217905550916020019190600101906200057d565b5b509050620005e7919062000613565b5090565b6200061091905b808211156200060c576000816000905550600101620005f2565b5090565b90565b6200065691905b808211156200065257600081816101000a81549073ffffffffffffffffffffffffffffffffffffffff0219169055506001016200061a565b5090565b90565b611fa480620006696000396000f3fe60806040526004361061011d576000357c0100000000000000000000000000000000000000000000000000000000900463ffffffff1680630853b7e71461012257806311610c251461014d5780631b689326146101785780632292b6bb146101b1578063268f1153146102415780632a022d3f1461027f5780633eb76b9c146102aa57806342cde4e8146102e557806347f57b32146103105780635c39fcc11461032757806365008cd61461037e578063689006a5146103a957806371244c09146104005780638aac9cca1461040a578063b06b036814610435578063c19d93fb146104b0578063cc1dac6d146104e9578063d8bff5a514610514578063db21befd14610587578063e5225381146105b2578063e5f92973146105c9575b600080fd5b34801561012e57600080fd5b506101376105e0565b6040518082815260200191505060405180910390f35b34801561015957600080fd5b506101626105e6565b6040518082815260200191505060405180910390f35b34801561018457600080fd5b5061018d6105ec565b6040518082600381111561019d57fe5b60ff16815260200191505060405180910390f35b3480156101bd57600080fd5b506101c66105ff565b6040518080602001828103825283818151815260200191508051906020019080838360005b838110156102065780820151818401526020810190506101eb565b50505050905090810190601f1680156102335780820380516001836020036101000a031916815260200191505b509250505060405180910390f35b34801561024d57600080fd5b5061027d6004803603602081101561026457600080fd5b81019080803560ff16906020019092919050505061069d565b005b34801561028b57600080fd5b506102946106c3565b6040518082815260200191505060405180910390f35b3480156102b657600080fd5b506102e3600480360360208110156102cd57600080fd5b81019080803590602001909291905050506106c9565b005b3480156102f157600080fd5b506102fa610ac2565b6040518082815260200191505060405180910390f35b34801561031c57600080fd5b50610325610ac8565b005b34801561033357600080fd5b5061033c610fd4565b604051808273ffffffffffffffffffffffffffffffffffffffff1673ffffffffffffffffffffffffffffffffffffffff16815260200191505060405180910390f35b34801561038a57600080fd5b50610393610ff9565b6040518082815260200191505060405180910390f35b3480156103b557600080fd5b506103be610fff565b604051808273ffffffffffffffffffffffffffffffffffffffff1673ffffffffffffffffffffffffffffffffffffffff16815260200191505060405180910390f35b610408611025565b005b34801561041657600080fd5b5061041f611464565b6040518082815260200191505060405180910390f35b34801561044157600080fd5b5061046e6004803603602081101561045857600080fd5b810190808035906020019092919050505061146a565b604051808273ffffffffffffffffffffffffffffffffffffffff1673ffffffffffffffffffffffffffffffffffffffff16815260200191505060405180910390f35b3480156104bc57600080fd5b506104c56114a8565b604051808260028111156104d557fe5b60ff16815260200191505060405180910390f35b3480156104f557600080fd5b506104fe6114bb565b6040518082815260200191505060405180910390f35b34801561052057600080fd5b506105636004803603602081101561053757600080fd5b81019080803573ffffffffffffffffffffffffffffffffffffffff1690602001909291905050506114c1565b6040518082600381111561057357fe5b60ff16815260200191505060405180910390f35b34801561059357600080fd5b5061059c6114e1565b6040518082815260200191505060405180910390f35b3480156105be57600080fd5b506105c76114e7565b005b3480156105d557600080fd5b506105de6117ce565b005b600c5481565b60055481565b600d60019054906101000a900460ff1681565b60048054600181600116156101000203166002900480601f0160208091040260200160405190810160405280929190818152602001828054600181600116156101000203166002900480156106955780601f1061066a57610100808354040283529160200191610695565b820191906000526020600020905b81548152906001019060200180831161067857829003601f168201915b505050505081565b80600d60006101000a81548160ff021916908360028111156106bb57fe5b021790555050565b60095481565b6000429050600c54811180156107045750600060028111156106e757fe5b600d60009054906101000a900460ff16600281111561070257fe5b145b15610782576001600d60006101000a81548160ff0219169083600281111561072857fe5b02179055507f45f2fef6c61e25b553da580bc9f711ea1c431c244c2679f0abefbd95446b0dfb600d60009054906101000a900460ff166040518082600281111561076e57fe5b60ff16815260200191505060405180910390a15b600b54811180156107b857506001600281111561079b57fe5b600d60009054906101000a900460ff1660028111156107b657fe5b145b15610836576002600d60006101000a81548160ff021916908360028111156107dc57fe5b02179055507f45f2fef6c61e25b553da580bc9f711ea1c431c244c2679f0abefbd95446b0dfb600d60009054906101000a900460ff166040518082600281111561082257fe5b60ff16815260200191505060405180910390a15b6000600381111561084357fe5b600360003373ffffffffffffffffffffffffffffffffffffffff1673ffffffffffffffffffffffffffffffffffffffff16815260200190815260200160002060009054906101000a900460ff16600381111561089b57fe5b14151515610911576040517f08c379a00000000000000000000000000000000000000000000000000000000081526004018080602001828103825260148152602001807f4f6e6c79206a75646765732063616e20766f746500000000000000000000000081525060200191505060405180910390fd5b6001600281111561091e57fe5b600d60009054906101000a900460ff16600281111561093957fe5b1415156109d4576040517f08c379a00000000000000000000000000000000000000000000000000000000081526004018080602001828103825260238152602001807f4974206973206e6f7420796574207468652074696d65206f66207265636b6f6e81526020017f696e67000000000000000000000000000000000000000000000000000000000081525060400191505060405180910390fd5b60008260038111156109e257fe5b905080600360003373ffffffffffffffffffffffffffffffffffffffff1673ffffffffffffffffffffffffffffffffffffffff16815260200190815260200160002060006101000a81548160ff02191690836003811115610a3f57fe5b02179055507f14075e33dffdc00c1fcaf75d0f86d667170be57fb566b12b41b499e5fa53b1253382604051808373ffffffffffffffffffffffffffffffffffffffff1673ffffffffffffffffffffffffffffffffffffffff168152602001826003811115610aa957fe5b60ff1681526020019250505060405180910390a1505050565b60075481565b6000429050600c5481118015610b03575060006002811115610ae657fe5b600d60009054906101000a900460ff166002811115610b0157fe5b145b15610b81576001600d60006101000a81548160ff02191690836002811115610b2757fe5b02179055507f45f2fef6c61e25b553da580bc9f711ea1c431c244c2679f0abefbd95446b0dfb600d60009054906101000a900460ff1660405180826002811115610b6d57fe5b60ff16815260200191505060405180910390a15b600b5481118015610bb7575060016002811115610b9a57fe5b600d60009054906101000a900460ff166002811115610bb557fe5b145b15610c35576002600d60006101000a81548160ff02191690836002811115610bdb57fe5b02179055507f45f2fef6c61e25b553da580bc9f711ea1c431c244c2679f0abefbd95446b0dfb600d60009054906101000a900460ff1660405180826002811115610c2157fe5b60ff16815260200191505060405180910390a15b6000809054906101000a900473ffffffffffffffffffffffffffffffffffffffff1673ffffffffffffffffffffffffffffffffffffffff163373ffffffffffffffffffffffffffffffffffffffff161480610cdd5750600160009054906101000a900473ffffffffffffffffffffffffffffffffffffffff1673ffffffffffffffffffffffffffffffffffffffff163373ffffffffffffffffffffffffffffffffffffffff16145b1515610d51576040517f08c379a000000000000000000000000000000000000000000000000000000000815260040180806020018281038252601b8152602001807f796f752063616e6e6f742072657472616374207468697320626574000000000081525060200191505060405180910390fd5b60006002811115610d5e57fe5b600d60009054906101000a900460ff166002811115610d7957fe5b141515610dee576040517f08c379a000000000000000000000000000000000000000000000000000000000815260040180806020018281038252601b8152602001807f697420697320746f6f206c61746520746f207475726e206261636b000000000081525060200191505060405180910390fd5b6002600d60006101000a81548160ff02191690836002811115610e0d57fe5b02179055506003600d60016101000a81548160ff02191690836003811115610e3157fe5b02179055507f45f2fef6c61e25b553da580bc9f711ea1c431c244c2679f0abefbd95446b0dfb600d60009054906101000a900460ff1660405180826002811115610e7757fe5b60ff16815260200191505060405180910390a160055460088190555060006008541115610f2d577f7393c924ac30f9256e6cebcfb78841b1e7ef11bf8b09d87c2257b32b8063c9796000809054906101000a900473ffffffffffffffffffffffffffffffffffffffff16600854604051808373ffffffffffffffffffffffffffffffffffffffff1673ffffffffffffffffffffffffffffffffffffffff1681526020018281526020019250505060405180910390a15b60065460098190555060006009541115610fd1577f7393c924ac30f9256e6cebcfb78841b1e7ef11bf8b09d87c2257b32b8063c979600160009054906101000a900473ffffffffffffffffffffffffffffffffffffffff16600954604051808373ffffffffffffffffffffffffffffffffffffffff1673ffffffffffffffffffffffffffffffffffffffff1681526020018281526020019250505060405180910390a15b50565b6000809054906101000a900473ffffffffffffffffffffffffffffffffffffffff1681565b600a5481565b600160009054906101000a900473ffffffffffffffffffffffffffffffffffffffff1681565b6000429050600c548111801561106057506000600281111561104357fe5b600d60009054906101000a900460ff16600281111561105e57fe5b145b156110de576001600d60006101000a81548160ff0219169083600281111561108457fe5b02179055507f45f2fef6c61e25b553da580bc9f711ea1c431c244c2679f0abefbd95446b0dfb600d60009054906101000a900460ff16604051808260028111156110ca57fe5b60ff16815260200191505060405180910390a15b600b54811180156111145750600160028111156110f757fe5b600d60009054906101000a900460ff16600281111561111257fe5b145b15611192576002600d60006101000a81548160ff0219169083600281111561113857fe5b02179055507f45f2fef6c61e25b553da580bc9f711ea1c431c244c2679f0abefbd95446b0dfb600d60009054906101000a900460ff166040518082600281111561117e57fe5b60ff16815260200191505060405180910390a15b600160009054906101000a900473ffffffffffffffffffffffffffffffffffffffff1673ffffffffffffffffffffffffffffffffffffffff163373ffffffffffffffffffffffffffffffffffffffff16141515611257576040517f08c379a000000000000000000000000000000000000000000000000000000000815260040180806020018281038252601c8152602001807f796f752068617665206e6f74206265656e206368616c6c656e6765640000000081525060200191505060405180910390fd5b6000600281111561126457fe5b600d60009054906101000a900460ff16600281111561127f57fe5b14151561131a576040517f08c379a00000000000000000000000000000000000000000000000000000000081526004018080602001828103825260248152602001807f576520617265206e6f7420696e2074686520636f6e6669726d6174696f6e207381526020017f746167650000000000000000000000000000000000000000000000000000000081525060400191505060405180910390fd5b3460066000828254019250508190555060055460065411156113dc57600554600654036009819055507f7393c924ac30f9256e6cebcfb78841b1e7ef11bf8b09d87c2257b32b8063c979600160009054906101000a900473ffffffffffffffffffffffffffffffffffffffff16600954604051808373ffffffffffffffffffffffffffffffffffffffff1673ffffffffffffffffffffffffffffffffffffffff1681526020018281526020019250505060405180910390a16005546006819055505b6005546006541415611461576001600d60006101000a81548160ff0219169083600281111561140757fe5b02179055507f45f2fef6c61e25b553da580bc9f711ea1c431c244c2679f0abefbd95446b0dfb600d60009054906101000a900460ff166040518082600281111561144d57fe5b60ff16815260200191505060405180910390a15b50565b60065481565b60028181548110151561147957fe5b906000526020600020016000915054906101000a900473ffffffffffffffffffffffffffffffffffffffff1681565b600d60009054906101000a900460ff1681565b600b5481565b60036020528060005260406000206000915054906101000a900460ff1681565b60085481565b6000429050600c548111801561152257506000600281111561150557fe5b600d60009054906101000a900460ff16600281111561152057fe5b145b156115a0576001600d60006101000a81548160ff0219169083600281111561154657fe5b02179055507f45f2fef6c61e25b553da580bc9f711ea1c431c244c2679f0abefbd95446b0dfb600d60009054906101000a900460ff166040518082600281111561158c57fe5b60ff16815260200191505060405180910390a15b600b54811180156115d65750600160028111156115b957fe5b600d60009054906101000a900460ff1660028111156115d457fe5b145b15611654576002600d60006101000a81548160ff021916908360028111156115fa57fe5b02179055507f45f2fef6c61e25b553da580bc9f711ea1c431c244c2679f0abefbd95446b0dfb600d60009054906101000a900460ff166040518082600281111561164057fe5b60ff16815260200191505060405180910390a15b6000809050600160009054906101000a900473ffffffffffffffffffffffffffffffffffffffff1673ffffffffffffffffffffffffffffffffffffffff163373ffffffffffffffffffffffffffffffffffffffff161480156116b857506000600954115b1561171257600954905060006009819055503373ffffffffffffffffffffffffffffffffffffffff166108fc829081150290604051600060405180830381858888f19350505050158015611710573d6000803e3d6000fd5b505b6000809054906101000a900473ffffffffffffffffffffffffffffffffffffffff1673ffffffffffffffffffffffffffffffffffffffff163373ffffffffffffffffffffffffffffffffffffffff1614801561177057506000600854115b156117ca57600854905060006008819055503373ffffffffffffffffffffffffffffffffffffffff166108fc829081150290604051600060405180830381858888f193505050501580156117c8573d6000803e3d6000fd5b505b5050565b6000429050600c54811180156118095750600060028111156117ec57fe5b600d60009054906101000a900460ff16600281111561180757fe5b145b15611887576001600d60006101000a81548160ff0219169083600281111561182d57fe5b02179055507f45f2fef6c61e25b553da580bc9f711ea1c431c244c2679f0abefbd95446b0dfb600d60009054906101000a900460ff166040518082600281111561187357fe5b60ff16815260200191505060405180910390a15b600b54811180156118bd5750600160028111156118a057fe5b600d60009054906101000a900460ff1660028111156118bb57fe5b145b1561193b576002600d60006101000a81548160ff021916908360028111156118e157fe5b02179055507f45f2fef6c61e25b553da580bc9f711ea1c431c244c2679f0abefbd95446b0dfb600d60009054906101000a900460ff166040518082600281111561192757fe5b60ff16815260200191505060405180910390a15b60028081111561194757fe5b600d60009054906101000a900460ff16600281111561196257fe5b1415156119fd576040517f08c379a00000000000000000000000000000000000000000000000000000000081526004018080602001828103825260238152602001807f596f75722066617465206973207374696c6c206265696e67206465636964656481526020017f206f6e000000000000000000000000000000000000000000000000000000000081525060400191505060405180910390fd5b60006003811115611a0a57fe5b600d60019054906101000a900460ff166003811115611a2557fe5b141515611a9a576040517f08c379a000000000000000000000000000000000000000000000000000000000815260040180806020018281038252601b8152602001807f5468697320636f6e74726163742068617320636f6e636c75646564000000000081525060200191505060405180910390fd5b600080905060008090506000809050600080905060008090505b600280549050811015611c295760016003811115611ace57fe5b60036000600284815481101515611ae157fe5b9060005260206000200160009054906101000a900473ffffffffffffffffffffffffffffffffffffffff1673ffffffffffffffffffffffffffffffffffffffff1673ffffffffffffffffffffffffffffffffffffffff16815260200190815260200160002060009054906101000a900460ff166003811115611b5f57fe5b1415611b7057600185019450611c1c565b60026003811115611b7d57fe5b60036000600284815481101515611b9057fe5b9060005260206000200160009054906101000a900473ffffffffffffffffffffffffffffffffffffffff1673ffffffffffffffffffffffffffffffffffffffff1673ffffffffffffffffffffffffffffffffffffffff16815260200190815260200160002060009054906101000a900460ff166003811115611c0e57fe5b1415611c1b576001840193505b5b8080600101915050611ab4565b507f63a242a632efe33c0e210e04e4173612a17efa4f16aa4890bc7e46caece80de0846040518082815260200191505060405180910390a17f63a242a632efe33c0e210e04e4173612a17efa4f16aa4890bc7e46caece80de0836040518082815260200191505060405180910390a16064600754811515611ca657fe5b0460028054905085811515611cb757fe5b041115611cc357600191505b6064600754811515611cd157fe5b0460028054905084811515611ce257fe5b041115611cee57600190505b801515821515141515611d9357600115158215151415611d46576001600d60016101000a81548160ff02191690836003811115611d2757fe5b0217905550600260055402600860008282540192505081905550611d8e565b600115158115151415611d8d576002600d60016101000a81548160ff02191690836003811115611d7257fe5b02179055506002600554026009600082825401925050819055505b5b611ddc565b6003600d60016101000a81548160ff02191690836003811115611db257fe5b02179055506005546008600082825401925050819055506005546009600082825401925050819055505b6002600d60006101000a81548160ff02191690836002811115611dfb57fe5b02179055507f7393c924ac30f9256e6cebcfb78841b1e7ef11bf8b09d87c2257b32b8063c9796000809054906101000a900473ffffffffffffffffffffffffffffffffffffffff16600854604051808373ffffffffffffffffffffffffffffffffffffffff1673ffffffffffffffffffffffffffffffffffffffff1681526020018281526020019250505060405180910390a17f7393c924ac30f9256e6cebcfb78841b1e7ef11bf8b09d87c2257b32b8063c979600160009054906101000a900473ffffffffffffffffffffffffffffffffffffffff16600954604051808373ffffffffffffffffffffffffffffffffffffffff1673ffffffffffffffffffffffffffffffffffffffff1681526020018281526020019250505060405180910390a17f45f2fef6c61e25b553da580bc9f711ea1c431c244c2679f0abefbd95446b0dfb600d60009054906101000a900460ff1660405180826002811115611f5e57fe5b60ff16815260200191505060405180910390a1505050505056fea165627a7a72305820df67c1868a6c9c22342ce67303c4fd49b77dc0de18b8341392428e2c56b521b60029",
  "source": "pragma solidity >= 0.5.0;\n\n\ncontract Bet {\n  address public initiator;\n  address public challenged;\n  address[] public judges;\n\n  enum Vote { Null, Initiator, Challenged, Hung }\n  mapping(address => Vote) public votes;\n\n  string public bet_name;\n\n  uint public bet;\n  uint public matched = 0;\n\n  //number between 0 and 100, inclusive\n  //decides vote threshold needed to declare winner\n  uint public threshold;\n\n  uint public owed_initiator = 0;\n  uint public owed_challenged = 0;\n\n  //times expressed as seconds since unix epoch\n  uint public creation_time = now;\n  uint public judgement_deadline;\n  uint public confirmation_deadline = creation_time + 1 days;\n\n  event Voted(address judge, Vote vote);\n  event stateChange(State state);\n  event Owed(address owed, uint amount);\n  event Test(uint t);\n\n  enum State { Confirmation, Judgement, Complete }\n  State public state;\n\n  enum Conclusion { Undecided, Initiator, Challenger, Hung }\n  Conclusion public winstate = Conclusion.Undecided;\n\n  //check the time to ensure we are in the correct state\n  modifier checkState {\n    uint time = now;\n\n    if (time > confirmation_deadline && state==State.Confirmation) {\n      state = State.Judgement;\n      emit stateChange(state);\n    }\n\n    if (time > judgement_deadline && state==State.Judgement) {\n      state = State.Complete;\n      emit stateChange(state);\n    }\n\n    _;\n      \n  }\n\n  constructor (string memory _bet_name,\n\t      address _challenged,\n\t      address[] memory _judges,\n\t      uint _threshold,\n\t      uint _deadline) public payable {\n\n    require(_deadline > confirmation_deadline,\n\t    'deadline must be more than 24 hours into the future');\n    \n    require(_threshold <= 100,\n\t    'threshold cant be greater than 100');\n\n    require (_judges.length >= 1,\n\t     'There must be atleast 1 judge');\n    \n    bet_name = _bet_name;\n    bet = msg.value;\n    challenged = _challenged;\n    initiator = msg.sender;\n    threshold = _threshold;\n    judgement_deadline = _deadline;\n    judges = _judges;\n\n    for(uint i=0; i<_judges.length; i++) {\n      votes[_judges[i]] = Vote.Hung;\n    }\n\n    state = State.Confirmation;\n    emit stateChange(state);\n  }\n\n  //allow challenged to match bet of initiator\n  function matchBet() public payable checkState {\n\n    require(msg.sender == challenged,\n\t    'you have not been challenged');\n    require(state == State.Confirmation,\n\t    'We are not in the confirmation stage');\n\n    matched += msg.value;\n\n    if(matched > bet) {\n      owed_challenged = matched - bet;\n      emit Owed(challenged, owed_challenged);\n      matched = bet;\n    }\n\n    if(matched == bet) {\n      state = State.Judgement;\n      emit stateChange(state);\n    }\n  }\n\n  //allow initiator and challenged to collect any owed amount\n  function collect() public checkState {\n    uint amount = 0;\n\n    if(msg.sender == challenged &&\n       owed_challenged > 0){\n      amount = owed_challenged;\n      owed_challenged = 0;\n      msg.sender.transfer(amount);\n    }\n\n    if(msg.sender == initiator &&\n       owed_initiator > 0){\n      amount = owed_initiator;\n      owed_initiator= 0;\n      msg.sender.transfer(amount);\n    }\n  }\n\n\n  //allow initiator or challenged to retract bet during confirmation\n  function retract() public checkState {\n    require(msg.sender == initiator || msg.sender == challenged,\n\t    'you cannot retract this bet');\n    require(state == State.Confirmation,\n\t    'it is too late to turn back');\n\n    state = State.Complete;\n    winstate = Conclusion.Hung;\n    emit stateChange(state);\n\n    owed_initiator = bet;\n    if(owed_initiator > 0){\n      emit Owed(initiator, owed_initiator);\n    }\n\n    owed_challenged = matched;\n    if(owed_challenged > 0){\n      emit Owed(challenged, owed_challenged);\n    }\n  }\n\n  //allow judges to vote\n  function castVote(uint int_vote) public checkState {\n    require(votes[msg.sender] != Vote.Null,\n\t    'Only judges can vote');\n    require(state == State.Judgement,\n\t    'It is not yet the time of reckoning');\n\n    Vote vote = Vote(int_vote);\n\n    votes[msg.sender] = vote;\n    emit Voted(msg.sender, vote);\n  }\n\n  function conclude() public checkState {\n    require(state == State.Complete,\n\t    'Your fate is still being decided on');\n    require(winstate == Conclusion.Undecided,\n\t    'This contract has concluded');\n    \n    uint init_votes = 0;\n    uint chall_votes = 0;\n\n    bool init_threshold = false;\n    bool chall_threshold = false;\n\n    for(uint i=0; i<judges.length; i++){\n      if(votes[judges[i]] == Vote.Initiator) {\n\tinit_votes += 1;\n      }\n      else if(votes[judges[i]] == Vote.Challenged){\n\tchall_votes += 1;\n      }\n    }\n\n    emit Test(init_votes);\n    emit Test(chall_votes);\n\n    if( (init_votes/judges.length) > (threshold/100) ){\n      init_threshold = true;\n    }\n\n    if( (chall_votes/judges.length) > (threshold/100) ){\n      chall_threshold = true;\n    }\n\n    if(init_threshold != chall_threshold){\n      if(init_threshold == true) {\n\twinstate = Conclusion.Initiator;\n\towed_initiator += bet*2;\n      }else if(chall_threshold == true) {\n\twinstate = Conclusion.Challenger;\n\towed_challenged += bet*2;\n      }\n    }else{\n      winstate = Conclusion.Hung;\n      owed_initiator += bet;\n      owed_challenged += bet;\n    }\n\n    state = State.Complete;\n\n    emit Owed(initiator,owed_initiator);\n    emit Owed(challenged, owed_challenged);\n    emit stateChange(state);\n\n  }\n\n  //force change state, for testing purposes only\n  //ensure is commentted out before deploying contract for realsies\n  function changeState(State _state) public {\n    state = _state;\n  }\n\n  \n\n}\n",
  "sourcePath": "/home/z/prj/eth/learning/bet/contracts/bet.sol",
  "compiler": {
    "name": "solc",
    "version": "0.5.0+commit.1d4f565a.Emscripten.clang"
  },
  "schemaVersion": "3.0.0-beta.2",
  "updatedAt": "2018-12-18T19:09:58.463Z",
  "devdoc": {
    "methods": {}
  },
  "userdoc": {
    "methods": {}
  }
}