{
  "contractName": "Bet",
  "abi": [
    {
      "constant": true,
      "inputs": [],
      "name": "confirmation_deadline",
      "outputs": [
        {
          "name": "",
          "type": "uint256"
        }
      ],
      "payable": false,
      "stateMutability": "view",
      "type": "function"
    },
    {
      "constant": true,
      "inputs": [],
      "name": "bet",
      "outputs": [
        {
          "name": "",
          "type": "uint256"
        }
      ],
      "payable": false,
      "stateMutability": "view",
      "type": "function"
    },
    {
      "constant": true,
      "inputs": [],
      "name": "owed_challenged",
      "outputs": [
        {
          "name": "",
          "type": "uint256"
        }
      ],
      "payable": false,
      "stateMutability": "view",
      "type": "function"
    },
    {
      "constant": true,
      "inputs": [],
      "name": "threshold",
      "outputs": [
        {
          "name": "",
          "type": "uint256"
        }
      ],
      "payable": false,
      "stateMutability": "view",
      "type": "function"
    },
    {
      "constant": true,
      "inputs": [],
      "name": "initiator",
      "outputs": [
        {
          "name": "",
          "type": "address"
        }
      ],
      "payable": false,
      "stateMutability": "view",
      "type": "function"
    },
    {
      "constant": true,
      "inputs": [],
      "name": "creation_time",
      "outputs": [
        {
          "name": "",
          "type": "uint256"
        }
      ],
      "payable": false,
      "stateMutability": "view",
      "type": "function"
    },
    {
      "constant": true,
      "inputs": [],
      "name": "challenged",
      "outputs": [
        {
          "name": "",
          "type": "address"
        }
      ],
      "payable": false,
      "stateMutability": "view",
      "type": "function"
    },
    {
      "constant": true,
      "inputs": [],
      "name": "matched",
      "outputs": [
        {
          "name": "",
          "type": "uint256"
        }
      ],
      "payable": false,
      "stateMutability": "view",
      "type": "function"
    },
    {
      "constant": true,
      "inputs": [],
      "name": "state",
      "outputs": [
        {
          "name": "",
          "type": "uint8"
        }
      ],
      "payable": false,
      "stateMutability": "view",
      "type": "function"
    },
    {
      "constant": true,
      "inputs": [],
      "name": "judgement_deadline",
      "outputs": [
        {
          "name": "",
          "type": "uint256"
        }
      ],
      "payable": false,
      "stateMutability": "view",
      "type": "function"
    },
    {
      "constant": true,
      "inputs": [],
      "name": "owed_originator",
      "outputs": [
        {
          "name": "",
          "type": "uint256"
        }
      ],
      "payable": false,
      "stateMutability": "view",
      "type": "function"
    },
    {
      "inputs": [
        {
          "name": "_bet_name",
          "type": "string"
        },
        {
          "name": "_bet",
          "type": "uint256"
        },
        {
          "name": "_challenged",
          "type": "address"
        },
        {
          "name": "_judges",
          "type": "address[]"
        },
        {
          "name": "_threshold",
          "type": "uint256"
        },
        {
          "name": "_deadline",
          "type": "uint256"
        }
      ],
      "payable": false,
      "stateMutability": "nonpayable",
      "type": "constructor"
    },
    {
      "anonymous": false,
      "inputs": [
        {
          "indexed": false,
          "name": "judge",
          "type": "address"
        },
        {
          "indexed": false,
          "name": "vote",
          "type": "uint8"
        }
      ],
      "name": "Voted",
      "type": "event"
    },
    {
      "anonymous": false,
      "inputs": [
        {
          "indexed": false,
          "name": "state",
          "type": "uint8"
        }
      ],
      "name": "stateChange",
      "type": "event"
    },
    {
      "anonymous": false,
      "inputs": [
        {
          "indexed": false,
          "name": "owed",
          "type": "address"
        },
        {
          "indexed": false,
          "name": "amount",
          "type": "uint256"
        }
      ],
      "name": "Owed",
      "type": "event"
    },
    {
      "constant": false,
      "inputs": [],
      "name": "matchBet",
      "outputs": [],
      "payable": true,
      "stateMutability": "payable",
      "type": "function"
    },
    {
      "constant": false,
      "inputs": [],
      "name": "collect",
      "outputs": [],
      "payable": false,
      "stateMutability": "nonpayable",
      "type": "function"
    },
    {
      "constant": false,
      "inputs": [],
      "name": "retract",
      "outputs": [],
      "payable": false,
      "stateMutability": "nonpayable",
      "type": "function"
    },
    {
      "constant": false,
      "inputs": [
        {
          "name": "vote",
          "type": "uint8"
        }
      ],
      "name": "castVote",
      "outputs": [],
      "payable": false,
      "stateMutability": "nonpayable",
      "type": "function"
    },
    {
      "constant": false,
      "inputs": [],
      "name": "finalDecision",
      "outputs": [],
      "payable": false,
      "stateMutability": "nonpayable",
      "type": "function"
    }
  ],
  "bytecode": "0x6080604052600060055560006007556000600855426009556201518060095401600b5534801561002e57600080fd5b506040516108ad3803806108ad8339810180604052810190808051820192919060200180519060200190929190805190602001909291908051820192919060200180519060200190929190805190602001909291905050506000600b5482111515610127576040517f08c379a00000000000000000000000000000000000000000000000000000000081526004018080602001828103825260338152602001807f646561646c696e65206d757374206265206d6f7265207468616e20323420686f81526020017f75727320696e746f20746865206675747572650000000000000000000000000081525060400191505060405180910390fd5b606483111515156101c6576040517f08c379a00000000000000000000000000000000000000000000000000000000081526004018080602001828103825260228152602001807f7468726573686f6c642063616e742062652067726561746572207468616e203181526020017f303000000000000000000000000000000000000000000000000000000000000081525060400191505060405180910390fd5b6001845110151515610240576040517f08c379a000000000000000000000000000000000000000000000000000000000815260040180806020018281038252601d8152602001807f5468657265206d7573742062652061746c656173742031206a7564676500000081525060200191505060405180910390fd5b866003908051906020019061025692919061038b565b508560048190555084600160006101000a81548173ffffffffffffffffffffffffffffffffffffffff021916908373ffffffffffffffffffffffffffffffffffffffff160217905550336000806101000a81548173ffffffffffffffffffffffffffffffffffffffff021916908373ffffffffffffffffffffffffffffffffffffffff1602179055508260068190555081600a81905550600090505b835181101561037f576002806000868481518110151561030e57fe5b9060200190602002015173ffffffffffffffffffffffffffffffffffffffff1673ffffffffffffffffffffffffffffffffffffffff16815260200190815260200160002060006101000a81548160ff0219169083600281111561036d57fe5b021790555080806001019150506102f2565b50505050505050610430565b828054600181600116156101000203166002900490600052602060002090601f016020900481019282601f106103cc57805160ff19168380011785556103fa565b828001600101855582156103fa579182015b828111156103f95782518255916020019190600101906103de565b5b509050610407919061040b565b5090565b61042d91905b80821115610429576000816000905550600101610411565b5090565b90565b61046e8061043f6000396000f3006080604052600436106100e6576000357c0100000000000000000000000000000000000000000000000000000000900463ffffffff1680630853b7e7146100eb57806311610c25146101165780632a022d3f1461014157806342cde4e81461016c57806347f57b32146101975780635c39fcc1146101ae57806365008cd614610205578063689006a51461023057806371244c09146102875780638aac9cca1461029157806394a13541146102bc578063c19d93fb146102ec578063cc1dac6d14610325578063d474b9ce14610350578063e2856fbc14610367578063e522538114610392575b600080fd5b3480156100f757600080fd5b506101006103a9565b6040518082815260200191505060405180910390f35b34801561012257600080fd5b5061012b6103af565b6040518082815260200191505060405180910390f35b34801561014d57600080fd5b506101566103b5565b6040518082815260200191505060405180910390f35b34801561017857600080fd5b506101816103bb565b6040518082815260200191505060405180910390f35b3480156101a357600080fd5b506101ac6103c1565b005b3480156101ba57600080fd5b506101c36103c3565b604051808273ffffffffffffffffffffffffffffffffffffffff1673ffffffffffffffffffffffffffffffffffffffff16815260200191505060405180910390f35b34801561021157600080fd5b5061021a6103e8565b6040518082815260200191505060405180910390f35b34801561023c57600080fd5b506102456103ee565b604051808273ffffffffffffffffffffffffffffffffffffffff1673ffffffffffffffffffffffffffffffffffffffff16815260200191505060405180910390f35b61028f610414565b005b34801561029d57600080fd5b506102a6610416565b6040518082815260200191505060405180910390f35b3480156102c857600080fd5b506102ea600480360381019080803560ff16906020019092919050505061041c565b005b3480156102f857600080fd5b5061030161041f565b6040518082600281111561031157fe5b60ff16815260200191505060405180910390f35b34801561033157600080fd5b5061033a610432565b6040518082815260200191505060405180910390f35b34801561035c57600080fd5b50610365610438565b005b34801561037357600080fd5b5061037c61043a565b6040518082815260200191505060405180910390f35b34801561039e57600080fd5b506103a7610440565b005b600b5481565b60045481565b60085481565b60065481565b565b6000809054906101000a900473ffffffffffffffffffffffffffffffffffffffff1681565b60095481565b600160009054906101000a900473ffffffffffffffffffffffffffffffffffffffff1681565b565b60055481565b50565b600c60009054906101000a900460ff1681565b600a5481565b565b60075481565b5600a165627a7a72305820b4f6520edf2199716a071d104930c27d93998fb2595f5079cbaa1c5cf58747a80029",
  "source": "pragma solidity ^0.4.22;\n\n\ncontract Bet {\n  address public initiator;\n  address public challenged;\n\n  enum Vote { Initiator, Challenged, Hung }\n  mapping(address => Vote) judges;\n\n  string bet_name;\n\n  uint public bet;\n  uint public matched = 0;\n\n  //number between 0 and 100, inclusive\n  //decides vote threshold needed to declare winner\n  uint public threshold;\n\n  uint public owed_originator = 0;\n  uint public owed_challenged = 0;\n\n  uint private constant SECONDS_IN_DAY = 24 * 60 * 60;\n\n  //times expressed as seconds since unix epoch\n  uint public creation_time = now;\n  uint public judgement_deadline;\n  uint public confirmation_deadline = creation_time + 1 days;\n\n  event Voted(address judge, Vote vote);\n  event stateChange(State state);\n  event Owed(address owed, uint amount);\n\n  enum State { Confirmation, Judgement, Complete }\n  State public state;\n\n  \n  constructor(string _bet_name,\n\t      uint _bet,\n\t      address _challenged,\n\t      address[] _judges,\n\t      uint _threshold,\n\t      uint _deadline) {\n\n    require(_deadline > confirmation_deadline,\n\t    'deadline must be more than 24 hours into the future');\n    \n    require(_threshold <= 100,\n\t    'threshold cant be greater than 100');\n\n    require (_judges.length >= 1,\n\t     'There must be atleast 1 judge');\n    \n    bet_name = _bet_name;\n    bet = _bet;\n    challenged = _challenged;\n    initiator = msg.sender;\n    threshold = _threshold;\n    judgement_deadline = _deadline;\n\n    for(uint i=0; i<_judges.length; i++) {\n      judges[_judges[i]] = Vote.Hung;\n    }\n  }\n\n  //allow challenged to match bet of initiator\n  function matchBet() public payable {\n  }\n\n  //allow initiator and challenged to collect any owed amount\n  function collect() public {\n  }\n\n\n  //allow initiator or challenged to retract bet during confirmation\n  function retract() public {\n  }\n\n  //allow judges to vote\n  function castVote(Vote vote) public {\n  }\n\n  function finalDecision() public {\n  }\n}\n",
  "sourcePath": "/home/z/prj/eth/learning/bet/contracts/bet.sol",
  "compiler": {
    "name": "solc",
    "version": "0.4.24+commit.e67f0147.Emscripten.clang"
  },
  "schemaVersion": "2.0.1",
  "updatedAt": "2018-12-14T22:47:04.124Z"
}