{
  "contractName": "Simple_Judge",
  "abi": [
    {
      "constant": false,
      "inputs": [
        {
          "name": "bet_contract",
          "type": "address"
        }
      ],
      "name": "castVote",
      "outputs": [
        {
          "name": "vote",
          "type": "uint8"
        }
      ],
      "payable": false,
      "stateMutability": "nonpayable",
      "type": "function"
    }
  ],
  "bytecode": "0x608060405234801561001057600080fd5b50610185806100206000396000f3fe608060405260043610610041576000357c0100000000000000000000000000000000000000000000000000000000900463ffffffff16806353358fc414610046575b600080fd5b34801561005257600080fd5b506100956004803603602081101561006957600080fd5b81019080803573ffffffffffffffffffffffffffffffffffffffff1690602001909291905050506100b9565b604051808260038111156100a557fe5b60ff16815260200191505060405180910390f35b6000600390508173ffffffffffffffffffffffffffffffffffffffff16633eb76b9c8260038111156100e757fe5b6040518263ffffffff167c010000000000000000000000000000000000000000000000000000000002815260040180828152602001915050600060405180830381600087803b15801561013957600080fd5b505af115801561014d573d6000803e3d6000fd5b5050505080905091905056fea165627a7a72305820737cea4da15d0dc9ba7b63726d307bbce8789119a4f70b34266bc4333a29c76c0029",
  "source": "pragma solidity 0.5.0;\n\nimport './judge_interface.sol' ;\nimport './bet.sol' ;\n\n\ncontract Simple_Judge is Judge {\n\n  function castVote(Bet bet_contract) external returns (Vote vote) {\n    vote = Vote.Hung;\n    //uint uvote = vote;//send enum as uint to avoid conversion error\n    bet_contract.castVote(uint(vote));\n    return vote;\n  }\n  \n}\n",
  "sourcePath": "/home/z/prj/eth/learning/bet/contracts/simple_judge.sol",
  "compiler": {
    "name": "solc",
    "version": "0.5.0+commit.1d4f565a.Emscripten.clang"
  },
  "schemaVersion": "3.0.0-beta.2",
  "updatedAt": "2018-12-18T19:09:58.456Z",
  "devdoc": {
    "methods": {}
  },
  "userdoc": {
    "methods": {}
  }
}