{
  "contractName": "Simple_Judge",
  "abi": [
    {
      "constant": true,
      "inputs": [],
      "name": "dieselPriceUSD",
      "outputs": [
        {
          "name": "",
          "type": "uint256"
        }
      ],
      "payable": false,
      "stateMutability": "view",
      "type": "function"
    },
    {
      "anonymous": false,
      "inputs": [
        {
          "indexed": false,
          "name": "price",
          "type": "string"
        }
      ],
      "name": "LogNewDieselPrice",
      "type": "event"
    },
    {
      "anonymous": false,
      "inputs": [
        {
          "indexed": false,
          "name": "description",
          "type": "string"
        }
      ],
      "name": "LogNewOraclizeQuery",
      "type": "event"
    },
    {
      "constant": false,
      "inputs": [
        {
          "name": "bet_contract",
          "type": "address"
        }
      ],
      "name": "castVote",
      "outputs": [
        {
          "name": "vote",
          "type": "uint8"
        }
      ],
      "payable": false,
      "stateMutability": "nonpayable",
      "type": "function"
    },
    {
      "constant": false,
      "inputs": [
        {
          "name": "myid",
          "type": "bytes32"
        },
        {
          "name": "result",
          "type": "string"
        }
      ],
      "name": "__callback",
      "outputs": [],
      "payable": false,
      "stateMutability": "nonpayable",
      "type": "function"
    },
    {
      "constant": false,
      "inputs": [
        {
          "name": "_myid",
          "type": "bytes32"
        },
        {
          "name": "_result",
          "type": "string"
        },
        {
          "name": "_proof",
          "type": "bytes"
        }
      ],
      "name": "__callback",
      "outputs": [],
      "payable": false,
      "stateMutability": "nonpayable",
      "type": "function"
    },
    {
      "constant": false,
      "inputs": [],
      "name": "update",
      "outputs": [],
      "payable": true,
      "stateMutability": "payable",
      "type": "function"
    }
  ],
  "bytecode": "0x608060405234801561001057600080fd5b506117a8806100206000396000f3fe60806040526004361061006d576000357c0100000000000000000000000000000000000000000000000000000000900463ffffffff16806327dc297e1461007257806338bbfa50146101445780633e0ae588146102ad57806353358fc4146102d8578063a2e620451461034b575b600080fd5b34801561007e57600080fd5b506101426004803603604081101561009557600080fd5b8101908080359060200190929190803590602001906401000000008111156100bc57600080fd5b8201836020820111156100ce57600080fd5b803590602001918460018302840111640100000000831117156100f057600080fd5b91908080601f016020809104026020016040519081016040528093929190818152602001838380828437600081840152601f19601f820116905080830192505050505050509192919290505050610355565b005b34801561015057600080fd5b506102ab6004803603606081101561016757600080fd5b81019080803590602001909291908035906020019064010000000081111561018e57600080fd5b8201836020820111156101a057600080fd5b803590602001918460018302840111640100000000831117156101c257600080fd5b91908080601f016020809104026020016040519081016040528093929190818152602001838380828437600081840152601f19601f8201169050808301925050505050505091929192908035906020019064010000000081111561022557600080fd5b82018360208201111561023757600080fd5b8035906020019184600183028401116401000000008311171561025957600080fd5b91908080601f016020809104026020016040519081016040528093929190818152602001838380828437600081840152601f19601f820116905080830192505050505050509192919290505050610447565b005b3480156102b957600080fd5b506102c261044c565b6040518082815260200191505060405180910390f35b3480156102e457600080fd5b50610327600480360360208110156102fb57600080fd5b81019080803573ffffffffffffffffffffffffffffffffffffffff169060200190929190505050610452565b6040518082600381111561033757fe5b60ff16815260200191505060405180910390f35b6103536104f2565b005b61035d610644565b73ffffffffffffffffffffffffffffffffffffffff163373ffffffffffffffffffffffffffffffffffffffff1614151561039657600080fd5b7fd6895258709992fce160291769b3d3b2abe843f1e1529bed11f0dbd1f8159bb0816040518080602001828103825283818151815260200191508051906020019080838360005b838110156103f85780820151818401526020810190506103dd565b50505050905090810190601f1680156104255780820380516001836020036101000a031916815260200191505b509250505060405180910390a161043d8160026109b7565b6005819055505050565b505050565b60055481565b6000600390508173ffffffffffffffffffffffffffffffffffffffff16633eb76b9c82600381111561048057fe5b6040518263ffffffff167c010000000000000000000000000000000000000000000000000000000002815260040180828152602001915050600060405180830381600087803b1580156104d257600080fd5b505af11580156104e6573d6000803e3d6000fd5b50505050809050919050565b7f621c2856e3b87f81235f8ac8a22bbb40a0142961960710d00b2b6c380902b57e6040518080602001828103825260368152602001807f4f7261636c697a65207175657279207761732073656e742c207374616e64696e81526020017f6720627920666f722074686520616e737765722e2e2e0000000000000000000081525060400191505060405180910390a16106416040805190810160405280600381526020017f55524c0000000000000000000000000000000000000000000000000000000000815250608060405190810160405280604581526020017f786d6c2868747470733a2f2f7777772e6675656c65636f6e6f6d792e676f762f81526020017f77732f726573742f6675656c707269636573292e6675656c5072696365732e6481526020017f696573656c000000000000000000000000000000000000000000000000000000815250610c52565b50565b60008073ffffffffffffffffffffffffffffffffffffffff16600160009054906101000a900473ffffffffffffffffffffffffffffffffffffffff1673ffffffffffffffffffffffffffffffffffffffff1614806106cc575060006106ca600160009054906101000a900473ffffffffffffffffffffffffffffffffffffffff1661120b565b145b156106dd576106db6000611216565b505b600160009054906101000a900473ffffffffffffffffffffffffffffffffffffffff1673ffffffffffffffffffffffffffffffffffffffff166338cc48316040518163ffffffff167c0100000000000000000000000000000000000000000000000000000000028152600401602060405180830381600087803b15801561076357600080fd5b505af1158015610777573d6000803e3d6000fd5b505050506040513d602081101561078d57600080fd5b810190808051906020019092919050505073ffffffffffffffffffffffffffffffffffffffff166000809054906101000a900473ffffffffffffffffffffffffffffffffffffffff1673ffffffffffffffffffffffffffffffffffffffff161415156108f457600160009054906101000a900473ffffffffffffffffffffffffffffffffffffffff1673ffffffffffffffffffffffffffffffffffffffff166338cc48316040518163ffffffff167c0100000000000000000000000000000000000000000000000000000000028152600401602060405180830381600087803b15801561087957600080fd5b505af115801561088d573d6000803e3d6000fd5b505050506040513d60208110156108a357600080fd5b81019080805190602001909291905050506000806101000a81548173ffffffffffffffffffffffffffffffffffffffff021916908373ffffffffffffffffffffffffffffffffffffffff1602179055505b6000809054906101000a900473ffffffffffffffffffffffffffffffffffffffff1673ffffffffffffffffffffffffffffffffffffffff1663c281d19e6040518163ffffffff167c010000000000000000000000000000000000000000000000000000000002815260040160206040518083038186803b15801561097757600080fd5b505afa15801561098b573d6000803e3d6000fd5b505050506040513d60208110156109a157600080fd5b8101908080519060200190929190505050905090565b600060608390506000809050600080905060008090505b8351811015610c3357603084828151811015156109e757fe5b9060200101517f010000000000000000000000000000000000000000000000000000000000000090047f0100000000000000000000000000000000000000000000000000000000000000027f0100000000000000000000000000000000000000000000000000000000000000900460ff1610158015610ae5575060398482815181101515610a7157fe5b9060200101517f010000000000000000000000000000000000000000000000000000000000000090047f0100000000000000000000000000000000000000000000000000000000000000027f0100000000000000000000000000000000000000000000000000000000000000900460ff1611155b15610b99578115610b08576000861415610afe57610c33565b8580600190039650505b600a8302925060308482815181101515610b1e57fe5b9060200101517f010000000000000000000000000000000000000000000000000000000000000090047f0100000000000000000000000000000000000000000000000000000000000000027f0100000000000000000000000000000000000000000000000000000000000000900460ff160383019250610c26565b602e8482815181101515610ba957fe5b9060200101517f010000000000000000000000000000000000000000000000000000000000000090047f0100000000000000000000000000000000000000000000000000000000000000027f0100000000000000000000000000000000000000000000000000000000000000900460ff161415610c2557600191505b5b80806001019150506109ce565b506000851115610c465784600a0a820291505b81935050505092915050565b60008073ffffffffffffffffffffffffffffffffffffffff16600160009054906101000a900473ffffffffffffffffffffffffffffffffffffffff1673ffffffffffffffffffffffffffffffffffffffff161480610cda57506000610cd8600160009054906101000a900473ffffffffffffffffffffffffffffffffffffffff1661120b565b145b15610ceb57610ce96000611216565b505b600160009054906101000a900473ffffffffffffffffffffffffffffffffffffffff1673ffffffffffffffffffffffffffffffffffffffff166338cc48316040518163ffffffff167c0100000000000000000000000000000000000000000000000000000000028152600401602060405180830381600087803b158015610d7157600080fd5b505af1158015610d85573d6000803e3d6000fd5b505050506040513d6020811015610d9b57600080fd5b810190808051906020019092919050505073ffffffffffffffffffffffffffffffffffffffff166000809054906101000a900473ffffffffffffffffffffffffffffffffffffffff1673ffffffffffffffffffffffffffffffffffffffff16141515610f0257600160009054906101000a900473ffffffffffffffffffffffffffffffffffffffff1673ffffffffffffffffffffffffffffffffffffffff166338cc48316040518163ffffffff167c0100000000000000000000000000000000000000000000000000000000028152600401602060405180830381600087803b158015610e8757600080fd5b505af1158015610e9b573d6000803e3d6000fd5b505050506040513d6020811015610eb157600080fd5b81019080805190602001909291905050506000806101000a81548173ffffffffffffffffffffffffffffffffffffffff021916908373ffffffffffffffffffffffffffffffffffffffff1602179055505b60008060009054906101000a900473ffffffffffffffffffffffffffffffffffffffff1673ffffffffffffffffffffffffffffffffffffffff1663524f3889856040518263ffffffff167c01000000000000000000000000000000000000000000000000000000000281526004018080602001828103825283818151815260200191508051906020019080838360005b83811015610fad578082015181840152602081019050610f92565b50505050905090810190601f168015610fda5780820380516001836020036101000a031916815260200191505b5092505050602060405180830381600087803b158015610ff957600080fd5b505af115801561100d573d6000803e3d6000fd5b505050506040513d602081101561102357600080fd5b8101908080519060200190929190505050905062030d403a02670de0b6b3a76400000181111561105a576000600102915050611205565b6000809054906101000a900473ffffffffffffffffffffffffffffffffffffffff1673ffffffffffffffffffffffffffffffffffffffff1663adf59f9982600087876040518563ffffffff167c0100000000000000000000000000000000000000000000000000000000028152600401808481526020018060200180602001838103835285818151815260200191508051906020019080838360005b838110156111115780820151818401526020810190506110f6565b50505050905090810190601f16801561113e5780820380516001836020036101000a031916815260200191505b50838103825284818151815260200191508051906020019080838360005b8381101561117757808201518184015260208101905061115c565b50505050905090810190601f1680156111a45780820380516001836020036101000a031916815260200191505b50955050505050506020604051808303818588803b1580156111c557600080fd5b505af11580156111d9573d6000803e3d6000fd5b50505050506040513d60208110156111f057600080fd5b81019080805190602001909291905050509150505b92915050565b6000813b9050919050565b6000611220611227565b9050919050565b600080611247731d3b2638a7cc9f2cb3d298a3da7a90b67e5506ed61120b565b11156112e957731d3b2638a7cc9f2cb3d298a3da7a90b67e5506ed600160006101000a81548173ffffffffffffffffffffffffffffffffffffffff021916908373ffffffffffffffffffffffffffffffffffffffff1602179055506112e06040805190810160405280600b81526020017f6574685f6d61696e6e65740000000000000000000000000000000000000000008152506116bd565b600190506116ba565b600061130873c03a2615d5efaf5f49f60b7bb6583eaec212fdf161120b565b11156113aa5773c03a2615d5efaf5f49f60b7bb6583eaec212fdf1600160006101000a81548173ffffffffffffffffffffffffffffffffffffffff021916908373ffffffffffffffffffffffffffffffffffffffff1602179055506113a16040805190810160405280600c81526020017f6574685f726f707374656e3300000000000000000000000000000000000000008152506116bd565b600190506116ba565b60006113c973b7a07bcf2ba2f2703b24c0691b5278999c59ac7e61120b565b111561146b5773b7a07bcf2ba2f2703b24c0691b5278999c59ac7e600160006101000a81548173ffffffffffffffffffffffffffffffffffffffff021916908373ffffffffffffffffffffffffffffffffffffffff1602179055506114626040805190810160405280600981526020017f6574685f6b6f76616e00000000000000000000000000000000000000000000008152506116bd565b600190506116ba565b600061148a73146500cfd35b22e4a392fe0adc06de1a1368ed4861120b565b111561152c5773146500cfd35b22e4a392fe0adc06de1a1368ed48600160006101000a81548173ffffffffffffffffffffffffffffffffffffffff021916908373ffffffffffffffffffffffffffffffffffffffff1602179055506115236040805190810160405280600b81526020017f6574685f72696e6b6562790000000000000000000000000000000000000000008152506116bd565b600190506116ba565b600061154b736f485c8bf6fc43ea212e93bbf8ce046c7f1cb47561120b565b11156115af57736f485c8bf6fc43ea212e93bbf8ce046c7f1cb475600160006101000a81548173ffffffffffffffffffffffffffffffffffffffff021916908373ffffffffffffffffffffffffffffffffffffffff160217905550600190506116ba565b60006115ce7320e12a1f859b3feae5fb2a0a32c18f5a65555bbf61120b565b1115611632577320e12a1f859b3feae5fb2a0a32c18f5a65555bbf600160006101000a81548173ffffffffffffffffffffffffffffffffffffffff021916908373ffffffffffffffffffffffffffffffffffffffff160217905550600190506116ba565b60006116517351efaf4c8b3c9afbd5ab9f4bbc82784ab6ef8faa61120b565b11156116b5577351efaf4c8b3c9afbd5ab9f4bbc82784ab6ef8faa600160006101000a81548173ffffffffffffffffffffffffffffffffffffffff021916908373ffffffffffffffffffffffffffffffffffffffff160217905550600190506116ba565b600090505b90565b80600290805190602001906116d39291906116d7565b5050565b828054600181600116156101000203166002900490600052602060002090601f016020900481019282601f1061171857805160ff1916838001178555611746565b82800160010185558215611746579182015b8281111561174557825182559160200191906001019061172a565b5b5090506117539190611757565b5090565b61177991905b8082111561177557600081600090555060010161175d565b5090565b9056fea165627a7a72305820c0fc9106e3a67c1be858631437083757fd292044d7116d1601ac50b925077e830029",
  "source": "pragma solidity 0.5.0;\n\nimport './judge_interface.sol' ;\nimport './bet.sol' ;\nimport \"./oraclizeAPI.sol\";\n\n\ncontract Simple_Judge is Judge, usingOraclize {\n\n  uint public dieselPriceUSD;\n\n  event LogNewDieselPrice(string price);\n  event LogNewOraclizeQuery(string description);\n\n  function castVote(Bet bet_contract) external returns (Vote vote) {\n    vote = Vote.Hung;\n    //uint uvote = vote;//send enum as uint to avoid conversion error\n    bet_contract.castVote(uint(vote));\n    return vote;\n  }\n\n  \n  \n  function __callback(bytes32 myid, string memory result) public {\n    require(msg.sender == oraclize_cbAddress());\n    emit LogNewDieselPrice(result);\n    dieselPriceUSD = parseInt(result, 2); // Let's save it as cents...\n        // Now do something with the USD Diesel price...\n    }\n\n  function update() public payable {\n    emit LogNewOraclizeQuery(\"Oraclize query was sent, standing by for the answer...\");\n    oraclize_query(\"URL\",\n\t\t   \"xml(https://www.fueleconomy.gov/ws/rest/fuelprices).fuelPrices.diesel\");\n  }\n}\n",
  "sourcePath": "/home/z/prj/eth/learning/bet/contracts/simple_judge.sol",
  "compiler": {
    "name": "solc",
    "version": "0.5.0+commit.1d4f565a.Emscripten.clang"
  },
  "schemaVersion": "3.0.0-beta.2",
  "updatedAt": "2018-12-19T00:10:45.003Z",
  "devdoc": {
    "methods": {}
  },
  "userdoc": {
    "methods": {}
  }
}