{
  "contractName": "invoice",
  "abi": [
    {
      "constant": true,
      "inputs": [],
      "name": "payer",
      "outputs": [
        {
          "name": "",
          "type": "address"
        }
      ],
      "payable": false,
      "stateMutability": "view",
      "type": "function"
    },
    {
      "constant": true,
      "inputs": [],
      "name": "originator",
      "outputs": [
        {
          "name": "",
          "type": "address"
        }
      ],
      "payable": false,
      "stateMutability": "view",
      "type": "function"
    },
    {
      "constant": true,
      "inputs": [],
      "name": "invoice_name",
      "outputs": [
        {
          "name": "",
          "type": "bytes32"
        }
      ],
      "payable": false,
      "stateMutability": "view",
      "type": "function"
    },
    {
      "inputs": [
        {
          "name": "_invoice_name",
          "type": "bytes32"
        },
        {
          "name": "_payer",
          "type": "address"
        },
        {
          "name": "_amount_owed",
          "type": "uint256"
        }
      ],
      "payable": false,
      "stateMutability": "nonpayable",
      "type": "constructor"
    },
    {
      "constant": true,
      "inputs": [],
      "name": "get_balance",
      "outputs": [
        {
          "name": "",
          "type": "uint256"
        }
      ],
      "payable": false,
      "stateMutability": "view",
      "type": "function"
    },
    {
      "constant": false,
      "inputs": [],
      "name": "pay",
      "outputs": [],
      "payable": true,
      "stateMutability": "payable",
      "type": "function"
    }
  ],
  "bytecode": "0x608060405234801561001057600080fd5b50604051606080610514833981018060405281019080805190602001909291908051906020019092919080519060200190929190505050336000806101000a81548173ffffffffffffffffffffffffffffffffffffffff021916908373ffffffffffffffffffffffffffffffffffffffff16021790555081600160006101000a81548173ffffffffffffffffffffffffffffffffffffffff021916908373ffffffffffffffffffffffffffffffffffffffff160217905550826003816000191690555080600281905550505050610428806100ec6000396000f30060806040526004361061006d576000357c0100000000000000000000000000000000000000000000000000000000900463ffffffff168063123119cd146100725780631b9265b8146100c95780633c815d9e146100d3578063c1cfb99a1461012a578063fb2652c614610155575b600080fd5b34801561007e57600080fd5b50610087610188565b604051808273ffffffffffffffffffffffffffffffffffffffff1673ffffffffffffffffffffffffffffffffffffffff16815260200191505060405180910390f35b6100d16101ae565b005b3480156100df57600080fd5b506100e8610285565b604051808273ffffffffffffffffffffffffffffffffffffffff1673ffffffffffffffffffffffffffffffffffffffff16815260200191505060405180910390f35b34801561013657600080fd5b5061013f6102aa565b6040518082815260200191505060405180910390f35b34801561016157600080fd5b5061016a6103f6565b60405180826000191660001916815260200191505060405180910390f35b600160009054906101000a900473ffffffffffffffffffffffffffffffffffffffff1681565b600160009054906101000a900473ffffffffffffffffffffffffffffffffffffffff1673ffffffffffffffffffffffffffffffffffffffff163373ffffffffffffffffffffffffffffffffffffffff16141515610273576040517f08c379a00000000000000000000000000000000000000000000000000000000081526004018080602001828103825260208152602001807f5468697320776569676874206973206e6f7420796f75727320746f206265617281525060200191505060405180910390fd5b34600260008282540392505081905550565b6000809054906101000a900473ffffffffffffffffffffffffffffffffffffffff1681565b6000600160009054906101000a900473ffffffffffffffffffffffffffffffffffffffff1673ffffffffffffffffffffffffffffffffffffffff163373ffffffffffffffffffffffffffffffffffffffff16148061035457506000809054906101000a900473ffffffffffffffffffffffffffffffffffffffff1673ffffffffffffffffffffffffffffffffffffffff163373ffffffffffffffffffffffffffffffffffffffff16145b15156103ee576040517f08c379a00000000000000000000000000000000000000000000000000000000081526004018080602001828103825260218152602001807f4e6f7420616c6c206b6e6f776c656467652073686f756c64206265206b6e6f7781526020017f6e0000000000000000000000000000000000000000000000000000000000000081525060400191505060405180910390fd5b600254905090565b600354815600a165627a7a72305820eeea6fed934b59eed494be5eb7a4fd55ef62ebda082ef956a0a99a491a7ae1c60029",
  "source": "pragma solidity ^0.4.0;\n\ncontract invoice {\n\n  address public originator;\n  address public payer;\n  uint amount_owed;\n  bytes32 public invoice_name;\n\n  \n\n  constructor(\n\t      bytes32 _invoice_name,\n\t      address _payer,\n\t      uint _amount_owed\n\t      )public {\n    originator = msg.sender;\n    payer = _payer;\n    invoice_name = _invoice_name;\n    amount_owed = _amount_owed;\n  }\n\n  function get_balance() public view returns (uint){\n\n    //only those involved with the debt need know the amount\n    require(\n\t    msg.sender == payer ||\n\t    msg.sender == originator,\n\t    'Not all knowledge should be known');\n\n    return amount_owed;\n  }\n\n    function pay() public payable {\n\n    //payment must be from deptor\n    require(\n\t    msg.sender == payer,\n\t    'This weight is not yours to bear');\n\n\n    amount_owed -= msg.value;\n\n\n  \n    }\n}\n\n\n\t      \n",
  "sourcePath": "/home/z/prj/eth/learning/invoice/contracts/invoice.sol",
  "compiler": {
    "name": "solc",
    "version": "0.4.24+commit.e67f0147.Emscripten.clang"
  },
  "schemaVersion": "2.0.1",
  "updatedAt": "2018-12-08T20:20:11.450Z"
}